:060000000A128A11FC2F18
:100F1C00831203130815881008100800831203139A
:100F2C000811881008140800831203130811881480
:100F3C0008100800F401F501B22F0330F3009730CC
:100F4C00F200F20BA72FF30BA72FAC2F0130F407F5
:100F5C000318F50A0030F50771087502031DB82F48
:100F6C0070087402031CBB2FBC2FA32F0800831620
:100F7C00031388010A128A118E270A128A118830EB
:100F8C00F0001330F1000A128A11A0270A128A11FC
:100F9C000A128A119A270A128A11E830F0000330DB
:100FAC00F1000A128A11A0270A128A110A128A1158
:100FBC0094270A128A118830F0001330F1000A12BB
:100FCC008A11A0270A128A110A128A119A270A1268
:100FDC008A11E830F0000330F1000A128A11A027C0
:100FEC000A128A11C02F0A128A11002883010A12D0
:040FFC008A11BD2F6A
:08400000FF3FFF3FFF3FFF3FC0
:04400E00D420FF3F7C
:00000001FF
